{
  "contractName": "Multisig",
  "abi": [
    {
      "inputs": [
        {
          "internalType": "address[]",
          "name": "_approvers",
          "type": "address[]"
        },
        {
          "internalType": "uint256",
          "name": "_approvals_num",
          "type": "uint256"
        }
      ],
      "stateMutability": "payable",
      "type": "constructor",
      "payable": true
    },
    {
      "stateMutability": "payable",
      "type": "fallback",
      "payable": true
    },
    {
      "inputs": [
        {
          "internalType": "address",
          "name": "",
          "type": "address"
        },
        {
          "internalType": "uint256",
          "name": "",
          "type": "uint256"
        }
      ],
      "name": "approvals",
      "outputs": [
        {
          "internalType": "bool",
          "name": "",
          "type": "bool"
        }
      ],
      "stateMutability": "view",
      "type": "function",
      "constant": true
    },
    {
      "inputs": [],
      "name": "approvalsNum",
      "outputs": [
        {
          "internalType": "uint256",
          "name": "",
          "type": "uint256"
        }
      ],
      "stateMutability": "view",
      "type": "function",
      "constant": true
    },
    {
      "inputs": [
        {
          "internalType": "uint256",
          "name": "",
          "type": "uint256"
        }
      ],
      "name": "approvers",
      "outputs": [
        {
          "internalType": "address",
          "name": "",
          "type": "address"
        }
      ],
      "stateMutability": "view",
      "type": "function",
      "constant": true
    },
    {
      "inputs": [
        {
          "internalType": "uint256",
          "name": "",
          "type": "uint256"
        }
      ],
      "name": "transfers",
      "outputs": [
        {
          "internalType": "uint256",
          "name": "_id",
          "type": "uint256"
        },
        {
          "internalType": "uint256",
          "name": "_amount",
          "type": "uint256"
        },
        {
          "internalType": "address payable",
          "name": "_to",
          "type": "address"
        },
        {
          "internalType": "uint256",
          "name": "_approvals",
          "type": "uint256"
        },
        {
          "internalType": "bool",
          "name": "_sent",
          "type": "bool"
        }
      ],
      "stateMutability": "view",
      "type": "function",
      "constant": true
    },
    {
      "inputs": [
        {
          "internalType": "uint256",
          "name": "amount",
          "type": "uint256"
        },
        {
          "internalType": "address payable",
          "name": "to",
          "type": "address"
        }
      ],
      "name": "createTransfer",
      "outputs": [],
      "stateMutability": "nonpayable",
      "type": "function"
    },
    {
      "inputs": [
        {
          "internalType": "uint256",
          "name": "id",
          "type": "uint256"
        }
      ],
      "name": "sendTransfer",
      "outputs": [],
      "stateMutability": "nonpayable",
      "type": "function"
    }
  ],
  "bytecode": "0x608060405260405162000fab38038062000fab833981810160405281019062000029919062000328565b81600090805190602001906200004192919062000051565b508060018190555050506200038e565b828054828255906000526020600020908101928215620000cd579160200282015b82811115620000cc5782518260006101000a81548173ffffffffffffffffffffffffffffffffffffffff021916908373ffffffffffffffffffffffffffffffffffffffff1602179055509160200191906001019062000072565b5b509050620000dc9190620000e0565b5090565b5b80821115620000fb576000816000905550600101620000e1565b5090565b6000604051905090565b600080fd5b600080fd5b600080fd5b6000601f19601f8301169050919050565b7f4e487b7100000000000000000000000000000000000000000000000000000000600052604160045260246000fd5b620001638262000118565b810181811067ffffffffffffffff8211171562000185576200018462000129565b5b80604052505050565b60006200019a620000ff565b9050620001a8828262000158565b919050565b600067ffffffffffffffff821115620001cb57620001ca62000129565b5b602082029050602081019050919050565b600080fd5b600073ffffffffffffffffffffffffffffffffffffffff82169050919050565b60006200020e82620001e1565b9050919050565b620002208162000201565b81146200022c57600080fd5b50565b600081519050620002408162000215565b92915050565b60006200025d6200025784620001ad565b6200018e565b90508083825260208201905060208402830185811115620002835762000282620001dc565b5b835b81811015620002b057806200029b88826200022f565b84526020840193505060208101905062000285565b5050509392505050565b600082601f830112620002d257620002d162000113565b5b8151620002e484826020860162000246565b91505092915050565b6000819050919050565b6200030281620002ed565b81146200030e57600080fd5b50565b6000815190506200032281620002f7565b92915050565b6000806040838503121562000342576200034162000109565b5b600083015167ffffffffffffffff8111156200036357620003626200010e565b5b6200037185828601620002ba565b9250506020620003848582860162000311565b9150509250929050565b610c0d806200039e6000396000f3fe6080604052600436106100595760003560e01c80634c12fa471461005c57806364fb4c03146100855780639377d711146100b0578063d1c68d1e146100f1578063d3650fb81461011a578063ffabc673146101575761005a565b5b005b34801561006857600080fd5b50610083600480360381019061007e9190610825565b610194565b005b34801561009157600080fd5b5061009a610373565b6040516100a79190610874565b60405180910390f35b3480156100bc57600080fd5b506100d760048036038101906100d2919061088f565b610379565b6040516100e89594939291906108e6565b60405180910390f35b3480156100fd57600080fd5b506101186004803603810190610113919061088f565b6103dc565b005b34801561012657600080fd5b50610141600480360381019061013c919061088f565b61071e565b60405161014e919061095a565b60405180910390f35b34801561016357600080fd5b5061017e600480360381019061017991906109a1565b61075d565b60405161018b91906109e1565b60405180910390f35b6000805b60008054905081101561022e573373ffffffffffffffffffffffffffffffffffffffff16600082815481106101d0576101cf6109fc565b5b9060005260206000200160009054906101000a900473ffffffffffffffffffffffffffffffffffffffff1673ffffffffffffffffffffffffffffffffffffffff160361021b57600191505b808061022690610a5a565b915050610198565b506001151581151514610276576040517f08c379a000000000000000000000000000000000000000000000000000000000815260040161026d90610b25565b60405180910390fd5b6040518060a0016040528060035481526020018481526020018373ffffffffffffffffffffffffffffffffffffffff1681526020016000815260200160001515815250600260006003548152602001908152602001600020600082015181600001556020820151816001015560408201518160020160006101000a81548173ffffffffffffffffffffffffffffffffffffffff021916908373ffffffffffffffffffffffffffffffffffffffff1602179055506060820151816003015560808201518160040160006101000a81548160ff0219169083151502179055509050506003600081548092919061036990610a5a565b9190505550505050565b60015481565b60026020528060005260406000206000915090508060000154908060010154908060020160009054906101000a900473ffffffffffffffffffffffffffffffffffffffff16908060030154908060040160009054906101000a900460ff16905085565b6000805b600080549050811015610476573373ffffffffffffffffffffffffffffffffffffffff1660008281548110610418576104176109fc565b5b9060005260206000200160009054906101000a900473ffffffffffffffffffffffffffffffffffffffff1673ffffffffffffffffffffffffffffffffffffffff160361046357600191505b808061046e90610a5a565b9150506103e0565b5060011515811515146104be576040517f08c379a00000000000000000000000000000000000000000000000000000000081526004016104b590610b25565b60405180910390fd5b600015156002600084815260200190815260200160002060040160009054906101000a900460ff16151514610528576040517f08c379a000000000000000000000000000000000000000000000000000000000815260040161051f90610bb7565b60405180910390fd5b60015460026000848152602001908152602001600020600301541061061a5760016002600084815260200190815260200160002060040160006101000a81548160ff02191690831515021790555060006002600084815260200190815260200160002060020160009054906101000a900473ffffffffffffffffffffffffffffffffffffffff1690506000600260008581526020019081526020016000206001015490508173ffffffffffffffffffffffffffffffffffffffff166108fc829081150290604051600060405180830381858888f19350505050158015610612573d6000803e3d6000fd5b50505061071a565b60001515600460003373ffffffffffffffffffffffffffffffffffffffff1673ffffffffffffffffffffffffffffffffffffffff168152602001908152602001600020600084815260200190815260200160002060009054906101000a900460ff16151503610719576001600460003373ffffffffffffffffffffffffffffffffffffffff1673ffffffffffffffffffffffffffffffffffffffff168152602001908152602001600020600084815260200190815260200160002060006101000a81548160ff02191690831515021790555060026000838152602001908152602001600020600301600081548092919061071390610a5a565b91905055505b5b5050565b6000818154811061072e57600080fd5b906000526020600020016000915054906101000a900473ffffffffffffffffffffffffffffffffffffffff1681565b60046020528160005260406000206020528060005260406000206000915091509054906101000a900460ff1681565b600080fd5b6000819050919050565b6107a481610791565b81146107af57600080fd5b50565b6000813590506107c18161079b565b92915050565b600073ffffffffffffffffffffffffffffffffffffffff82169050919050565b60006107f2826107c7565b9050919050565b610802816107e7565b811461080d57600080fd5b50565b60008135905061081f816107f9565b92915050565b6000806040838503121561083c5761083b61078c565b5b600061084a858286016107b2565b925050602061085b85828601610810565b9150509250929050565b61086e81610791565b82525050565b60006020820190506108896000830184610865565b92915050565b6000602082840312156108a5576108a461078c565b5b60006108b3848285016107b2565b91505092915050565b6108c5816107e7565b82525050565b60008115159050919050565b6108e0816108cb565b82525050565b600060a0820190506108fb6000830188610865565b6109086020830187610865565b61091560408301866108bc565b6109226060830185610865565b61092f60808301846108d7565b9695505050505050565b6000610944826107c7565b9050919050565b61095481610939565b82525050565b600060208201905061096f600083018461094b565b92915050565b61097e81610939565b811461098957600080fd5b50565b60008135905061099b81610975565b92915050565b600080604083850312156109b8576109b761078c565b5b60006109c68582860161098c565b92505060206109d7858286016107b2565b9150509250929050565b60006020820190506109f660008301846108d7565b92915050565b7f4e487b7100000000000000000000000000000000000000000000000000000000600052603260045260246000fd5b7f4e487b7100000000000000000000000000000000000000000000000000000000600052601160045260246000fd5b6000610a6582610791565b91507fffffffffffffffffffffffffffffffffffffffffffffffffffffffffffffffff8203610a9757610a96610a2b565b5b600182019050919050565b600082825260208201905092915050565b7f5468652073656e6465722061646472657373206973206e6f7420696e636c756460008201527f656420696e2074686520617070726f7665727320617272617900000000000000602082015250565b6000610b0f603983610aa2565b9150610b1a82610ab3565b604082019050919050565b60006020820190508181036000830152610b3e81610b02565b9050919050565b7f546865207472616e73616374696f6e20686173206265656e2073656e7420616c60008201527f7265616479000000000000000000000000000000000000000000000000000000602082015250565b6000610ba1602583610aa2565b9150610bac82610b45565b604082019050919050565b60006020820190508181036000830152610bd081610b94565b905091905056fea2646970667358221220871795244550186c38a5ee7db77afe05f2e4a12a4fcbd19784bd39961bf25a7664736f6c634300080f0033",
  "immutableReferences": {},
  "source": "pragma solidity  ^0.8.15;\n\n\ncontract Multisig {\n    address [] public approvers;                                                    //list of addresses , allowed to approve\n    uint public approvalsNum;                                                             //required approves\n    struct Transfer {                                                               // a transaction struct\n        uint _id;\n        uint _amount;\n        address payable _to;\n        uint _approvals;\n        bool _sent;\n    }\n\n    modifier Approver (){                                                          //an approver modifier that loops through the approvers array and  checks if the msg.sender is included\n        bool approved = false;\n        for (uint i=0; i<approvers.length; i++) {\n            if (approvers[i]==msg.sender){\n                approved =true;\n            }\n        }\n        require(approved==true, \"The sender address is not included in the approvers array\" );\n        _;\n\n    }\n    mapping (uint =>Transfer) public transfers;                                        // a mapping that stores every transfer struct. Public visibility so that mocha can access it for testing\n    uint nextId;\n    mapping (address=>mapping(uint=>bool))  public approvals;                   // a mapping that stores if a certain transfer is approved by an address\n    constructor (address[] memory _approvers, uint _approvals_num) payable {\n        approvers=_approvers;\n        approvalsNum=_approvals_num;\n\n    }\n\n    function createTransfer (uint amount, address payable to) external  Approver {     //instantiates the transaction struct\n        transfers[nextId]=Transfer (\n            nextId,\n            amount,\n            to,\n            0,\n            false\n        );\n        nextId++;\n\n        \n    }\n\n    function sendTransfer (uint id) external  Approver {                            //sends the transaction (input is the index of the transfer mapping)\n        require (transfers[id]._sent == false, \"The transaction has been sent already\");\n        if (transfers[id]._approvals >=approvalsNum) {\n            transfers[id]._sent = true;\n            address payable to = transfers[id]._to;\n            uint amount = transfers[id]._amount;\n            to.transfer(amount);\n            \n\n  \n\n            return;\n\n        }\n        if (approvals[msg.sender][id]==false) {                                     //if the transfer does not have the required number of approvals, the approvals increment by one.\n            approvals[msg.sender][id]=true;\n            transfers[id]._approvals ++;\n\n            \n\n\n        }\n\n    \n    }\n\n    fallback () external payable {}\n}",
  "sourcePath": "/Users/petartodorov/Desktop/coding/solidity/Dapp30/multisig wallet/contracts/Multisig.sol",
  "compiler": {
    "name": "solc",
    "version": "0.8.15+commit.e14f2714.Emscripten.clang"
  },
  "schemaVersion": "3.4.8",
  "updatedAt": "2022-08-23T23:41:55.867Z",
  "networkType": "ethereum",
  "devdoc": {
    "kind": "dev",
    "methods": {},
    "version": 1
  },
  "userdoc": {
    "kind": "user",
    "methods": {},
    "version": 1
  }
}