{
  "contractName": "Multisig",
  "abi": [
    {
      "inputs": [
        {
          "internalType": "address[]",
          "name": "_approvers",
          "type": "address[]"
        },
        {
          "internalType": "uint256",
          "name": "_approvals_num",
          "type": "uint256"
        }
      ],
      "stateMutability": "payable",
      "type": "constructor",
      "payable": true
    },
    {
      "inputs": [
        {
          "internalType": "address",
          "name": "",
          "type": "address"
        },
        {
          "internalType": "uint256",
          "name": "",
          "type": "uint256"
        }
      ],
      "name": "approvals",
      "outputs": [
        {
          "internalType": "bool",
          "name": "",
          "type": "bool"
        }
      ],
      "stateMutability": "view",
      "type": "function",
      "constant": true
    },
    {
      "inputs": [
        {
          "internalType": "uint256",
          "name": "",
          "type": "uint256"
        }
      ],
      "name": "approvers",
      "outputs": [
        {
          "internalType": "address",
          "name": "",
          "type": "address"
        }
      ],
      "stateMutability": "view",
      "type": "function",
      "constant": true
    },
    {
      "inputs": [
        {
          "internalType": "uint256",
          "name": "",
          "type": "uint256"
        }
      ],
      "name": "transfers",
      "outputs": [
        {
          "internalType": "uint256",
          "name": "_id",
          "type": "uint256"
        },
        {
          "internalType": "uint256",
          "name": "_amount",
          "type": "uint256"
        },
        {
          "internalType": "address payable",
          "name": "_to",
          "type": "address"
        },
        {
          "internalType": "uint256",
          "name": "_approvals",
          "type": "uint256"
        },
        {
          "internalType": "bool",
          "name": "_sent",
          "type": "bool"
        }
      ],
      "stateMutability": "view",
      "type": "function",
      "constant": true
    },
    {
      "inputs": [
        {
          "internalType": "uint256",
          "name": "amount",
          "type": "uint256"
        },
        {
          "internalType": "address payable",
          "name": "to",
          "type": "address"
        }
      ],
      "name": "createTransfer",
      "outputs": [],
      "stateMutability": "nonpayable",
      "type": "function"
    },
    {
      "inputs": [
        {
          "internalType": "uint256",
          "name": "id",
          "type": "uint256"
        }
      ],
      "name": "sendTransfer",
      "outputs": [],
      "stateMutability": "nonpayable",
      "type": "function"
    }
  ],
  "bytecode": "0x608060405260405162000f1e38038062000f1e833981810160405281019062000029919062000328565b81600090805190602001906200004192919062000051565b508060018190555050506200038e565b828054828255906000526020600020908101928215620000cd579160200282015b82811115620000cc5782518260006101000a81548173ffffffffffffffffffffffffffffffffffffffff021916908373ffffffffffffffffffffffffffffffffffffffff1602179055509160200191906001019062000072565b5b509050620000dc9190620000e0565b5090565b5b80821115620000fb576000816000905550600101620000e1565b5090565b6000604051905090565b600080fd5b600080fd5b600080fd5b6000601f19601f8301169050919050565b7f4e487b7100000000000000000000000000000000000000000000000000000000600052604160045260246000fd5b620001638262000118565b810181811067ffffffffffffffff8211171562000185576200018462000129565b5b80604052505050565b60006200019a620000ff565b9050620001a8828262000158565b919050565b600067ffffffffffffffff821115620001cb57620001ca62000129565b5b602082029050602081019050919050565b600080fd5b600073ffffffffffffffffffffffffffffffffffffffff82169050919050565b60006200020e82620001e1565b9050919050565b620002208162000201565b81146200022c57600080fd5b50565b600081519050620002408162000215565b92915050565b60006200025d6200025784620001ad565b6200018e565b90508083825260208201905060208402830185811115620002835762000282620001dc565b5b835b81811015620002b057806200029b88826200022f565b84526020840193505060208101905062000285565b5050509392505050565b600082601f830112620002d257620002d162000113565b5b8151620002e484826020860162000246565b91505092915050565b6000819050919050565b6200030281620002ed565b81146200030e57600080fd5b50565b6000815190506200032281620002f7565b92915050565b6000806040838503121562000342576200034162000109565b5b600083015167ffffffffffffffff8111156200036357620003626200010e565b5b6200037185828601620002ba565b9250506020620003848582860162000311565b9150509250929050565b610b80806200039e6000396000f3fe608060405234801561001057600080fd5b50600436106100575760003560e01c80634c12fa471461005c5780639377d71114610078578063d1c68d1e146100ac578063d3650fb8146100c8578063ffabc673146100f8575b600080fd5b610076600480360381019061007191906107b3565b610128565b005b610092600480360381019061008d91906107f3565b610307565b6040516100a3959493929190610859565b60405180910390f35b6100c660048036038101906100c191906107f3565b61036a565b005b6100e260048036038101906100dd91906107f3565b6106ac565b6040516100ef91906108cd565b60405180910390f35b610112600480360381019061010d9190610914565b6106eb565b60405161011f9190610954565b60405180910390f35b6000805b6000805490508110156101c2573373ffffffffffffffffffffffffffffffffffffffff16600082815481106101645761016361096f565b5b9060005260206000200160009054906101000a900473ffffffffffffffffffffffffffffffffffffffff1673ffffffffffffffffffffffffffffffffffffffff16036101af57600191505b80806101ba906109cd565b91505061012c565b50600115158115151461020a576040517f08c379a000000000000000000000000000000000000000000000000000000000815260040161020190610a98565b60405180910390fd5b6040518060a0016040528060035481526020018481526020018373ffffffffffffffffffffffffffffffffffffffff1681526020016000815260200160001515815250600260006003548152602001908152602001600020600082015181600001556020820151816001015560408201518160020160006101000a81548173ffffffffffffffffffffffffffffffffffffffff021916908373ffffffffffffffffffffffffffffffffffffffff1602179055506060820151816003015560808201518160040160006101000a81548160ff021916908315150217905550905050600360008154809291906102fd906109cd565b9190505550505050565b60026020528060005260406000206000915090508060000154908060010154908060020160009054906101000a900473ffffffffffffffffffffffffffffffffffffffff16908060030154908060040160009054906101000a900460ff16905085565b6000805b600080549050811015610404573373ffffffffffffffffffffffffffffffffffffffff16600082815481106103a6576103a561096f565b5b9060005260206000200160009054906101000a900473ffffffffffffffffffffffffffffffffffffffff1673ffffffffffffffffffffffffffffffffffffffff16036103f157600191505b80806103fc906109cd565b91505061036e565b50600115158115151461044c576040517f08c379a000000000000000000000000000000000000000000000000000000000815260040161044390610a98565b60405180910390fd5b600015156002600084815260200190815260200160002060040160009054906101000a900460ff161515146104b6576040517f08c379a00000000000000000000000000000000000000000000000000000000081526004016104ad90610b2a565b60405180910390fd5b6001546002600084815260200190815260200160002060030154106105a85760016002600084815260200190815260200160002060040160006101000a81548160ff02191690831515021790555060006002600084815260200190815260200160002060020160009054906101000a900473ffffffffffffffffffffffffffffffffffffffff1690506000600260008581526020019081526020016000206001015490508173ffffffffffffffffffffffffffffffffffffffff166108fc829081150290604051600060405180830381858888f193505050501580156105a0573d6000803e3d6000fd5b5050506106a8565b60001515600460003373ffffffffffffffffffffffffffffffffffffffff1673ffffffffffffffffffffffffffffffffffffffff168152602001908152602001600020600084815260200190815260200160002060009054906101000a900460ff161515036106a7576001600460003373ffffffffffffffffffffffffffffffffffffffff1673ffffffffffffffffffffffffffffffffffffffff168152602001908152602001600020600084815260200190815260200160002060006101000a81548160ff0219169083151502179055506002600083815260200190815260200160002060030160008154809291906106a1906109cd565b91905055505b5b5050565b600081815481106106bc57600080fd5b906000526020600020016000915054906101000a900473ffffffffffffffffffffffffffffffffffffffff1681565b60046020528160005260406000206020528060005260406000206000915091509054906101000a900460ff1681565b600080fd5b6000819050919050565b6107328161071f565b811461073d57600080fd5b50565b60008135905061074f81610729565b92915050565b600073ffffffffffffffffffffffffffffffffffffffff82169050919050565b600061078082610755565b9050919050565b61079081610775565b811461079b57600080fd5b50565b6000813590506107ad81610787565b92915050565b600080604083850312156107ca576107c961071a565b5b60006107d885828601610740565b92505060206107e98582860161079e565b9150509250929050565b6000602082840312156108095761080861071a565b5b600061081784828501610740565b91505092915050565b6108298161071f565b82525050565b61083881610775565b82525050565b60008115159050919050565b6108538161083e565b82525050565b600060a08201905061086e6000830188610820565b61087b6020830187610820565b610888604083018661082f565b6108956060830185610820565b6108a2608083018461084a565b9695505050505050565b60006108b782610755565b9050919050565b6108c7816108ac565b82525050565b60006020820190506108e260008301846108be565b92915050565b6108f1816108ac565b81146108fc57600080fd5b50565b60008135905061090e816108e8565b92915050565b6000806040838503121561092b5761092a61071a565b5b6000610939858286016108ff565b925050602061094a85828601610740565b9150509250929050565b6000602082019050610969600083018461084a565b92915050565b7f4e487b7100000000000000000000000000000000000000000000000000000000600052603260045260246000fd5b7f4e487b7100000000000000000000000000000000000000000000000000000000600052601160045260246000fd5b60006109d88261071f565b91507fffffffffffffffffffffffffffffffffffffffffffffffffffffffffffffffff8203610a0a57610a0961099e565b5b600182019050919050565b600082825260208201905092915050565b7f5468652073656e6465722061646472657373206973206e6f7420696e636c756460008201527f656420696e2074686520617070726f7665727320617272617900000000000000602082015250565b6000610a82603983610a15565b9150610a8d82610a26565b604082019050919050565b60006020820190508181036000830152610ab181610a75565b9050919050565b7f546865207472616e73616374696f6e20686173206265656e2073656e7420616c60008201527f7265616479000000000000000000000000000000000000000000000000000000602082015250565b6000610b14602583610a15565b9150610b1f82610ab8565b604082019050919050565b60006020820190508181036000830152610b4381610b07565b905091905056fea26469706673582212201136c5a3235ce60480d52c6b7ca38a45dd9eee39b132c6cd40b2846ee93159a964736f6c634300080f0033",
  "immutableReferences": {},
  "source": "pragma solidity  ^0.8.15;\n\n\ncontract Multisig {\n    address [] public approvers;                                                    //list of addresses , allowed to approve\n    uint approvals_num;                                                             //required approves\n    struct Transfer {                                                               // a transaction struct\n        uint _id;\n        uint _amount;\n        address payable _to;\n        uint _approvals;\n        bool _sent;\n    }\n\n    modifier Approver (){                                                          //an approver modifier that loops through the approvers array and  checks if the msg.sender is included\n        bool approved = false;\n        for (uint i=0; i<approvers.length; i++) {\n            if (approvers[i]==msg.sender){\n                approved =true;\n            }\n        }\n        require(approved==true, \"The sender address is not included in the approvers array\" );\n        _;\n\n    }\n    mapping (uint =>Transfer) public transfers;                                        // a mapping that stores every transfer struct. Public visibility so that mocha can access it for testing\n    uint nextId;\n    mapping (address=>mapping(uint=>bool))  public approvals;                   // a mapping that stores if a certain transfer is approved by an address\n    constructor (address[] memory _approvers, uint _approvals_num) payable {\n        approvers=_approvers;\n        approvals_num=_approvals_num;\n\n    }\n\n    function createTransfer (uint amount, address payable to) external  Approver {     //instantiates the transaction struct\n        transfers[nextId]=Transfer (\n            nextId,\n            amount,\n            to,\n            0,\n            false\n        );\n        nextId++;\n\n        \n    }\n\n    function sendTransfer (uint id) external  Approver {                            //sends the transaction (input is the index of the transfer mapping)\n        require (transfers[id]._sent == false, \"The transaction has been sent already\");\n        if (transfers[id]._approvals >=approvals_num) {\n            transfers[id]._sent = true;\n            address payable to = transfers[id]._to;\n            uint amount = transfers[id]._amount;\n            to.transfer(amount);\n            \n\n  \n\n            return;\n\n        }\n        if (approvals[msg.sender][id]==false) {                                     //if the transfer does not have the required number of approvals, the approvals increment by one.\n            approvals[msg.sender][id]=true;\n            transfers[id]._approvals ++;\n\n            \n\n\n        }\n    }\n}",
  "sourcePath": "/Users/petartodorov/Desktop/coding/solidity/Dapp30/multisig wallet/contracts/Multisig.sol",
  "compiler": {
    "name": "solc",
    "version": "0.8.15+commit.e14f2714.Emscripten.clang"
  },
  "schemaVersion": "3.4.8",
  "updatedAt": "2022-08-23T09:58:21.043Z",
  "networkType": "ethereum",
  "devdoc": {
    "kind": "dev",
    "methods": {},
    "version": 1
  },
  "userdoc": {
    "kind": "user",
    "methods": {},
    "version": 1
  }
}