{
  "contractName": "Multisig",
  "abi": [
    {
      "inputs": [
        {
          "internalType": "address[]",
          "name": "_approvers",
          "type": "address[]"
        },
        {
          "internalType": "uint256",
          "name": "_approvals_num",
          "type": "uint256"
        }
      ],
      "stateMutability": "payable",
      "type": "constructor"
    },
    {
      "inputs": [
        {
          "internalType": "address",
          "name": "",
          "type": "address"
        },
        {
          "internalType": "uint256",
          "name": "",
          "type": "uint256"
        }
      ],
      "name": "approvals",
      "outputs": [
        {
          "internalType": "bool",
          "name": "",
          "type": "bool"
        }
      ],
      "stateMutability": "view",
      "type": "function"
    },
    {
      "inputs": [
        {
          "internalType": "uint256",
          "name": "",
          "type": "uint256"
        }
      ],
      "name": "approvers",
      "outputs": [
        {
          "internalType": "address",
          "name": "",
          "type": "address"
        }
      ],
      "stateMutability": "view",
      "type": "function"
    },
    {
      "inputs": [
        {
          "internalType": "uint256",
          "name": "amount",
          "type": "uint256"
        },
        {
          "internalType": "address payable",
          "name": "to",
          "type": "address"
        }
      ],
      "name": "createTransfer",
      "outputs": [],
      "stateMutability": "nonpayable",
      "type": "function"
    },
    {
      "inputs": [
        {
          "internalType": "uint256",
          "name": "id",
          "type": "uint256"
        }
      ],
      "name": "sendTransfer",
      "outputs": [],
      "stateMutability": "nonpayable",
      "type": "function"
    }
  ],
  "bytecode": "0x608060405260405162000e0b38038062000e0b833981810160405281019062000029919062000328565b81600090805190602001906200004192919062000051565b508060018190555050506200038e565b828054828255906000526020600020908101928215620000cd579160200282015b82811115620000cc5782518260006101000a81548173ffffffffffffffffffffffffffffffffffffffff021916908373ffffffffffffffffffffffffffffffffffffffff1602179055509160200191906001019062000072565b5b509050620000dc9190620000e0565b5090565b5b80821115620000fb576000816000905550600101620000e1565b5090565b6000604051905090565b600080fd5b600080fd5b600080fd5b6000601f19601f8301169050919050565b7f4e487b7100000000000000000000000000000000000000000000000000000000600052604160045260246000fd5b620001638262000118565b810181811067ffffffffffffffff8211171562000185576200018462000129565b5b80604052505050565b60006200019a620000ff565b9050620001a8828262000158565b919050565b600067ffffffffffffffff821115620001cb57620001ca62000129565b5b602082029050602081019050919050565b600080fd5b600073ffffffffffffffffffffffffffffffffffffffff82169050919050565b60006200020e82620001e1565b9050919050565b620002208162000201565b81146200022c57600080fd5b50565b600081519050620002408162000215565b92915050565b60006200025d6200025784620001ad565b6200018e565b90508083825260208201905060208402830185811115620002835762000282620001dc565b5b835b81811015620002b057806200029b88826200022f565b84526020840193505060208101905062000285565b5050509392505050565b600082601f830112620002d257620002d162000113565b5b8151620002e484826020860162000246565b91505092915050565b6000819050919050565b6200030281620002ed565b81146200030e57600080fd5b50565b6000815190506200032281620002f7565b92915050565b6000806040838503121562000342576200034162000109565b5b600083015167ffffffffffffffff8111156200036357620003626200010e565b5b6200037185828601620002ba565b9250506020620003848582860162000311565b9150509250929050565b610a6d806200039e6000396000f3fe608060405234801561001057600080fd5b506004361061004c5760003560e01c80634c12fa4714610051578063d1c68d1e1461006d578063d3650fb814610089578063ffabc673146100b9575b600080fd5b61006b60048036038101906100669190610711565b6100e9565b005b61008760048036038101906100829190610751565b6102c8565b005b6100a3600480360381019061009e9190610751565b61060a565b6040516100b0919061079f565b60405180910390f35b6100d360048036038101906100ce91906107e6565b610649565b6040516100e09190610841565b60405180910390f35b6000805b600080549050811015610183573373ffffffffffffffffffffffffffffffffffffffff16600082815481106101255761012461085c565b5b9060005260206000200160009054906101000a900473ffffffffffffffffffffffffffffffffffffffff1673ffffffffffffffffffffffffffffffffffffffff160361017057600191505b808061017b906108ba565b9150506100ed565b5060011515811515146101cb576040517f08c379a00000000000000000000000000000000000000000000000000000000081526004016101c290610985565b60405180910390fd5b6040518060a0016040528060035481526020018481526020018373ffffffffffffffffffffffffffffffffffffffff1681526020016000815260200160001515815250600260006003548152602001908152602001600020600082015181600001556020820151816001015560408201518160020160006101000a81548173ffffffffffffffffffffffffffffffffffffffff021916908373ffffffffffffffffffffffffffffffffffffffff1602179055506060820151816003015560808201518160040160006101000a81548160ff021916908315150217905550905050600360008154809291906102be906108ba565b9190505550505050565b6000805b600080549050811015610362573373ffffffffffffffffffffffffffffffffffffffff16600082815481106103045761030361085c565b5b9060005260206000200160009054906101000a900473ffffffffffffffffffffffffffffffffffffffff1673ffffffffffffffffffffffffffffffffffffffff160361034f57600191505b808061035a906108ba565b9150506102cc565b5060011515811515146103aa576040517f08c379a00000000000000000000000000000000000000000000000000000000081526004016103a190610985565b60405180910390fd5b600015156002600084815260200190815260200160002060040160009054906101000a900460ff16151514610414576040517f08c379a000000000000000000000000000000000000000000000000000000000815260040161040b90610a17565b60405180910390fd5b6001546002600084815260200190815260200160002060030154106105065760016002600084815260200190815260200160002060040160006101000a81548160ff02191690831515021790555060006002600084815260200190815260200160002060020160009054906101000a900473ffffffffffffffffffffffffffffffffffffffff1690506000600260008581526020019081526020016000206001015490508173ffffffffffffffffffffffffffffffffffffffff166108fc829081150290604051600060405180830381858888f193505050501580156104fe573d6000803e3d6000fd5b505050610606565b60001515600460003373ffffffffffffffffffffffffffffffffffffffff1673ffffffffffffffffffffffffffffffffffffffff168152602001908152602001600020600084815260200190815260200160002060009054906101000a900460ff16151503610605576001600460003373ffffffffffffffffffffffffffffffffffffffff1673ffffffffffffffffffffffffffffffffffffffff168152602001908152602001600020600084815260200190815260200160002060006101000a81548160ff0219169083151502179055506002600083815260200190815260200160002060030160008154809291906105ff906108ba565b91905055505b5b5050565b6000818154811061061a57600080fd5b906000526020600020016000915054906101000a900473ffffffffffffffffffffffffffffffffffffffff1681565b60046020528160005260406000206020528060005260406000206000915091509054906101000a900460ff1681565b600080fd5b6000819050919050565b6106908161067d565b811461069b57600080fd5b50565b6000813590506106ad81610687565b92915050565b600073ffffffffffffffffffffffffffffffffffffffff82169050919050565b60006106de826106b3565b9050919050565b6106ee816106d3565b81146106f957600080fd5b50565b60008135905061070b816106e5565b92915050565b6000806040838503121561072857610727610678565b5b60006107368582860161069e565b9250506020610747858286016106fc565b9150509250929050565b60006020828403121561076757610766610678565b5b60006107758482850161069e565b91505092915050565b6000610789826106b3565b9050919050565b6107998161077e565b82525050565b60006020820190506107b46000830184610790565b92915050565b6107c38161077e565b81146107ce57600080fd5b50565b6000813590506107e0816107ba565b92915050565b600080604083850312156107fd576107fc610678565b5b600061080b858286016107d1565b925050602061081c8582860161069e565b9150509250929050565b60008115159050919050565b61083b81610826565b82525050565b60006020820190506108566000830184610832565b92915050565b7f4e487b7100000000000000000000000000000000000000000000000000000000600052603260045260246000fd5b7f4e487b7100000000000000000000000000000000000000000000000000000000600052601160045260246000fd5b60006108c58261067d565b91507fffffffffffffffffffffffffffffffffffffffffffffffffffffffffffffffff82036108f7576108f661088b565b5b600182019050919050565b600082825260208201905092915050565b7f5468652073656e6465722061646472657373206973206e6f7420696e636c756460008201527f656420696e2074686520617070726f7665727320617272617900000000000000602082015250565b600061096f603983610902565b915061097a82610913565b604082019050919050565b6000602082019050818103600083015261099e81610962565b9050919050565b7f546865207472616e73616374696f6e20686173206265656e2073656e7420616c60008201527f7265616479000000000000000000000000000000000000000000000000000000602082015250565b6000610a01602583610902565b9150610a0c826109a5565b604082019050919050565b60006020820190508181036000830152610a30816109f4565b905091905056fea2646970667358221220641a9c598cc30ce1c4e8e96cd77ebb509ef1fd24a35a94fc33a958a744f0476564736f6c634300080f0033",
  "immutableReferences": {},
  "source": "pragma solidity  ^0.8.15;\n\n\ncontract Multisig {\n    address [] public approvers;\n    uint approvals_num;\n    struct Transfer {\n        uint _id;\n        uint _amount;\n        address payable _to;\n        uint _approvals;\n        bool _sent;\n    }\n\n    modifier Approver (){\n        bool approved = false;\n        for (uint i=0; i<approvers.length; i++) {\n            if (approvers[i]==msg.sender){\n                approved =true;\n            }\n        }\n        require(approved==true, \"The sender address is not included in the approvers array\" );\n        _;\n\n    }\n    mapping (uint =>Transfer) transfers;\n    uint nextId;\n    mapping (address=>mapping(uint=>bool))  public approvals;\n    constructor (address[] memory _approvers, uint _approvals_num) payable {\n        approvers=_approvers;\n        approvals_num=_approvals_num;\n\n    }\n\n    function createTransfer (uint amount, address payable to) external  Approver {\n        transfers[nextId]=Transfer (\n            nextId,\n            amount,\n            to,\n            0,\n            false\n        );\n        nextId++;\n\n        \n    }\n\n    function sendTransfer (uint id) external  Approver {\n        require (transfers[id]._sent == false, \"The transaction has been sent already\");\n        if (transfers[id]._approvals >=approvals_num) {\n            transfers[id]._sent = true;\n            address payable to = transfers[id]._to;\n            uint amount = transfers[id]._amount;\n            to.transfer(amount);\n            \n\n  \n\n            return;\n\n        }\n        if (approvals[msg.sender][id]==false) {\n            approvals[msg.sender][id]=true;\n            transfers[id]._approvals ++;\n\n            \n\n\n        }\n    }\n}",
  "sourcePath": "/Users/petartodorov/Desktop/coding/solidity/Dapp30/multisig wallet/contracts/Multisig.sol",
  "compiler": {
    "name": "solc",
    "version": "0.8.15+commit.e14f2714.Emscripten.clang"
  },
  "schemaVersion": "3.4.8",
  "updatedAt": "2022-08-22T21:44:32.901Z",
  "devdoc": {
    "kind": "dev",
    "methods": {},
    "version": 1
  },
  "userdoc": {
    "kind": "user",
    "methods": {},
    "version": 1
  }
}